{
  "_format": "hh-sol-artifact-1",
  "contractName": "EventSenseStorage",
  "sourceName": "contracts/EventSenseStorage.sol",
  "abi": [
    {
      "anonymous": false,
      "inputs": [
        {
          "indexed": true,
          "internalType": "address",
          "name": "author",
          "type": "address"
        },
        {
          "indexed": false,
          "internalType": "string",
          "name": "cid",
          "type": "string"
        },
        {
          "indexed": false,
          "internalType": "uint256",
          "name": "timestamp",
          "type": "uint256"
        }
      ],
      "name": "SummaryStored",
      "type": "event"
    },
    {
      "inputs": [
        {
          "internalType": "uint256",
          "name": "_index",
          "type": "uint256"
        }
      ],
      "name": "getSummary",
      "outputs": [
        {
          "components": [
            {
              "internalType": "string",
              "name": "cid",
              "type": "string"
            },
            {
              "internalType": "address",
              "name": "author",
              "type": "address"
            },
            {
              "internalType": "uint256",
              "name": "timestamp",
              "type": "uint256"
            }
          ],
          "internalType": "struct EventSenseStorage.Summary",
          "name": "",
          "type": "tuple"
        }
      ],
      "stateMutability": "view",
      "type": "function"
    },
    {
      "inputs": [
        {
          "internalType": "string",
          "name": "_cid",
          "type": "string"
        }
      ],
      "name": "storeSummary",
      "outputs": [],
      "stateMutability": "nonpayable",
      "type": "function"
    },
    {
      "inputs": [
        {
          "internalType": "uint256",
          "name": "",
          "type": "uint256"
        }
      ],
      "name": "summaries",
      "outputs": [
        {
          "internalType": "string",
          "name": "cid",
          "type": "string"
        },
        {
          "internalType": "address",
          "name": "author",
          "type": "address"
        },
        {
          "internalType": "uint256",
          "name": "timestamp",
          "type": "uint256"
        }
      ],
      "stateMutability": "view",
      "type": "function"
    },
    {
      "inputs": [],
      "name": "totalSummaries",
      "outputs": [
        {
          "internalType": "uint256",
          "name": "",
          "type": "uint256"
        }
      ],
      "stateMutability": "view",
      "type": "function"
    }
  ],
  "bytecode": "0x6080604052348015600f57600080fd5b50610bd38061001f6000396000f3fe608060405234801561001057600080fd5b506004361061004c5760003560e01c806331775fb2146100515780639696d83d1461006f578063aee14460146100a1578063b9afde5f146100d1575b600080fd5b6100596100ed565b6040516100669190610471565b60405180910390f35b610089600480360381019061008491906104cc565b6100f9565b604051610098939291906105ca565b60405180910390f35b6100bb60048036038101906100b691906104cc565b6101db565b6040516100c891906106c0565b60405180910390f35b6100eb60048036038101906100e69190610817565b610309565b005b60008080549050905090565b6000818154811061010957600080fd5b906000526020600020906003020160009150905080600001805461012c9061088f565b80601f01602080910402602001604051908101604052809291908181526020018280546101589061088f565b80156101a55780601f1061017a576101008083540402835291602001916101a5565b820191906000526020600020905b81548152906001019060200180831161018857829003601f168201915b5050505050908060010160009054906101000a900473ffffffffffffffffffffffffffffffffffffffff16908060020154905083565b6101e3610421565b600082815481106101f7576101f66108c0565b5b90600052602060002090600302016040518060600160405290816000820180546102209061088f565b80601f016020809104026020016040519081016040528092919081815260200182805461024c9061088f565b80156102995780601f1061026e57610100808354040283529160200191610299565b820191906000526020600020905b81548152906001019060200180831161027c57829003601f168201915b505050505081526020016001820160009054906101000a900473ffffffffffffffffffffffffffffffffffffffff1673ffffffffffffffffffffffffffffffffffffffff1673ffffffffffffffffffffffffffffffffffffffff1681526020016002820154815250509050919050565b600060405180606001604052808381526020013373ffffffffffffffffffffffffffffffffffffffff168152602001428152509080600181540180825580915050600190039060005260206000209060030201600090919091909150600082015181600001908161037a9190610a9b565b5060208201518160010160006101000a81548173ffffffffffffffffffffffffffffffffffffffff021916908373ffffffffffffffffffffffffffffffffffffffff1602179055506040820151816002015550503373ffffffffffffffffffffffffffffffffffffffff167fe1929872b2e97b39103fbdc7f6c16f87170710736bca3af941f6ad22e33b5f848242604051610416929190610b6d565b60405180910390a250565b604051806060016040528060608152602001600073ffffffffffffffffffffffffffffffffffffffff168152602001600081525090565b6000819050919050565b61046b81610458565b82525050565b60006020820190506104866000830184610462565b92915050565b6000604051905090565b600080fd5b600080fd5b6104a981610458565b81146104b457600080fd5b50565b6000813590506104c6816104a0565b92915050565b6000602082840312156104e2576104e1610496565b5b60006104f0848285016104b7565b91505092915050565b600081519050919050565b600082825260208201905092915050565b60005b83811015610533578082015181840152602081019050610518565b60008484015250505050565b6000601f19601f8301169050919050565b600061055b826104f9565b6105658185610504565b9350610575818560208601610515565b61057e8161053f565b840191505092915050565b600073ffffffffffffffffffffffffffffffffffffffff82169050919050565b60006105b482610589565b9050919050565b6105c4816105a9565b82525050565b600060608201905081810360008301526105e48186610550565b90506105f360208301856105bb565b6106006040830184610462565b949350505050565b600082825260208201905092915050565b6000610624826104f9565b61062e8185610608565b935061063e818560208601610515565b6106478161053f565b840191505092915050565b61065b816105a9565b82525050565b61066a81610458565b82525050565b6000606083016000830151848203600086015261068d8282610619565b91505060208301516106a26020860182610652565b5060408301516106b56040860182610661565b508091505092915050565b600060208201905081810360008301526106da8184610670565b905092915050565b600080fd5b600080fd5b7f4e487b7100000000000000000000000000000000000000000000000000000000600052604160045260246000fd5b6107248261053f565b810181811067ffffffffffffffff82111715610743576107426106ec565b5b80604052505050565b600061075661048c565b9050610762828261071b565b919050565b600067ffffffffffffffff821115610782576107816106ec565b5b61078b8261053f565b9050602081019050919050565b82818337600083830152505050565b60006107ba6107b584610767565b61074c565b9050828152602081018484840111156107d6576107d56106e7565b5b6107e1848285610798565b509392505050565b600082601f8301126107fe576107fd6106e2565b5b813561080e8482602086016107a7565b91505092915050565b60006020828403121561082d5761082c610496565b5b600082013567ffffffffffffffff81111561084b5761084a61049b565b5b610857848285016107e9565b91505092915050565b7f4e487b7100000000000000000000000000000000000000000000000000000000600052602260045260246000fd5b600060028204905060018216806108a757607f821691505b6020821081036108ba576108b9610860565b5b50919050565b7f4e487b7100000000000000000000000000000000000000000000000000000000600052603260045260246000fd5b60008190508160005260206000209050919050565b60006020601f8301049050919050565b600082821b905092915050565b6000600883026109517fffffffffffffffffffffffffffffffffffffffffffffffffffffffffffffffff82610914565b61095b8683610914565b95508019841693508086168417925050509392505050565b6000819050919050565b600061099861099361098e84610458565b610973565b610458565b9050919050565b6000819050919050565b6109b28361097d565b6109c66109be8261099f565b848454610921565b825550505050565b600090565b6109db6109ce565b6109e68184846109a9565b505050565b5b81811015610a0a576109ff6000826109d3565b6001810190506109ec565b5050565b601f821115610a4f57610a20816108ef565b610a2984610904565b81016020851015610a38578190505b610a4c610a4485610904565b8301826109eb565b50505b505050565b600082821c905092915050565b6000610a7260001984600802610a54565b1980831691505092915050565b6000610a8b8383610a61565b9150826002028217905092915050565b610aa4826104f9565b67ffffffffffffffff811115610abd57610abc6106ec565b5b610ac7825461088f565b610ad2828285610a0e565b600060209050601f831160018114610b055760008415610af3578287015190505b610afd8582610a7f565b865550610b65565b601f198416610b13866108ef565b60005b82811015610b3b57848901518255600182019150602085019450602081019050610b16565b86831015610b585784890151610b54601f891682610a61565b8355505b6001600288020188555050505b505050505050565b60006040820190508181036000830152610b878185610550565b9050610b966020830184610462565b939250505056fea2646970667358221220addc29c7706df2df255603934df209bd663cf96d3a6900af7df89c1642c4c8b864736f6c634300081c0033",
  "linkReferences": {},
  "deployedLinkReferences": {}
}